:100000000C943B000C9458000C9458000C9458002D
:100010000C9458000C9458000C9458000C94DC017B
:100020000C9458000C9458000C9458000C945800F0
:100030000C9458000C9458000C9458000C945800E0
:100040000C9458000C9458000C94C3000C94580065
:100050000C9458000C94D6000C9458000C94580042
:100060000C9458000C9458000501210109010D0160
:1000700011011501190111241FBECFEFD8E0DEBF19
:10008000CDBF11E0A0E0B1E0E8EFF4E002C00590E0
:100090000D92A23CB107D9F721E0A2ECB1E001C07A
:1000A0001D92A53CB207E1F70E94A1000C947A02D0
:1000B0000C940000ECE7F0E0108280818064808383
:1000C00080818F7D8083EAE7F0E080818760808394
:1000D00080818068808380818860808308958F70AC
:1000E000ECE7F0E09081907F892B8083EAE7F0E0F5
:1000F000808180648083089581E091E00E940E02F7
:100100008BE191E00E940E0285E291E00E940E02D6
:1001100080E391E00E940E028AE391E00E940E02C9
:1001200084E491E00E940E0282E591E00E940E02BA
:100130008FE591E00E940E028BE691E00E940E0294
:1001400008950E9464010E945A000E94020283E006
:100150000E946F00789488E791E00E940E020E944E
:100160007C008091C2018823E1F388EA91E00E943B
:100170000E028091000190E00E940E021092C201D6
:100180000E947C00EECF1F920F920FB60F921124A7
:100190008F938091C6008093000181E08093C2011B
:1001A0008F910F900FBE0F901F9018951F920F9276
:1001B0000FB60F9211241F932F933F934F935F938A
:1001C0006F937F938F939F93AF93BF93CF93DF935F
:1001D000EF93FF932091780030917900A4E6B0E08E
:1001E0000E9457022FEF33E040E050E00E942F02C0
:1001F000E09100018E2F90E0FC01F197E730F105CE
:10020000E0F4EC5CFF4F0C94510240E0C0E05FEF83
:100210001BC04FEFC0E050E017C04FEFCFEF50E0F2
:1002200013C040E0CFEF5FEF0FC04FEFC0E05FEFD4
:100230000BC04FEFCFEF5FEF07C040E0C0E050E0F2
:1002400003C040E0CFEF50E030E0529FC001539F29
:10025000900D1124EFEFF0E0BF010E941B02162F5A
:10026000C29FC001C39F900D1124BF010E941B02B9
:10027000D62F429FC001439F900D1124BF010E94C1
:100280001B02C62F61E0812F0E94960161E08D2F35
:100290000E94B6018C2F0E94D60183E00E946F005D
:1002A000FF91EF91DF91CF91BF91AF919F918F918E
:1002B0007F916F915F914F913F912F911F910F907F
:1002C0000FBE0F901F901895E0E8F0E080818160EC
:1002D000808380818D7F8083E1E8F0E08081886089
:1002E000808380818F7E8083808184608083808111
:1002F0008D7F808380818160808384B1866084B9B2
:1003000084B1806284B985B18F7D85B982E08093A4
:10031000B00085E08093B10082E18093B300E0E714
:10032000F0E080818260808378940895613049F4A0
:10033000E0E8F0E090819068908390819F7B9083CB
:1003400008C0E0E8F0E0908190689083908190642C
:1003500090832FEF829FC001112464E670E00E9419
:100360001B0270938900609388000895613049F4FE
:10037000E0E8F0E090819062908390819F7E90838E
:1003800008C0E0E8F0E090819062908390819061F5
:1003900090832FEF829FC001112464E670E00E94D9
:1003A0001B0270938B0060938A000895853608F0D5
:1003B00084E68093C40108951F920F920FB60F92A6
:1003C00011248F939F938091C3018F5F8093C3010A
:1003D0009091C3018091C401981720F485B1806287
:1003E00085B903C085B18F7D85B98091C3018436FD
:1003F00010F01092C3019F918F910F900FBE0F903C
:100400001F9018951092C50087E68093C40088E974
:100410008093C10086E08093C2000895FC0107C06C
:100420009091C00095FFFCCF31968093C6008081EB
:100430008111F6CF089597FB072E16F4009407D08C
:1004400077FD09D00E94660207FC05D03EF4909526
:1004500081959F4F0895709561957F4F0895A1E212
:100460001A2EAA1BBB1BFD010DC0AA1FBB1FEE1F2E
:10047000FF1FA217B307E407F50720F0A21BB30B79
:10048000E40BF50B661F771F881F991F1A9469F7F5
:1004900060957095809590959B01AC01BD01CF0151
:1004A0000895EE0FFF1F0590F491E02D0994A29F8F
:1004B000B001B39FC001A39F700D811D1124911D38
:1004C000B29F700D811D1124911D0895AA1BBB1BA5
:1004D00051E107C0AA1FBB1FA617B70710F0A61B44
:1004E000B70B881F991F5A95A9F780959095BC0165
:0804F000CD010895F894FFCF3F
:1004F800310D0A3D3D3D204D454E55204445204394
:100508004F4C4F524553203D3D3D000D0A312E20A2
:10051800526F6A6F000D0A322E20566572646500AC
:100528000D0A332E20417A756C000D0A342E2043B3
:1005380069616E000D0A352E20416D6172696C6C1F
:100548006F000D0A362E204D6167656E7461000DCF
:100558000A372E20426C616E636F000D0A382E2018
:100568004E6567726F0D0A000D0A53697374656DE5
:100578006120646520436F6E74726F6C20706F72B7
:1005880020436F6C6F726573202D2038204F706385
:10059800696F6E65730D0A000D0A4F706369EFBFCE
:1005A800BD6E2073656C656363696F6E6164613AE3
:0205B800200021
:00000001FF
